:100000000C942A000C943C000C943C000C943C0092
:100010000C943C000C943C000C943C000C94330277
:100020000C943C000C943C000C943C000C94E901B2
:100030000C943C000C943C000C943C000C943C0050
:100040000C943C000C943C000C943C000C943C0040
:100050000C943C0011241FBECFE5D8E0DEBFCDBF1D
:1000600020E0A0E6B0E001C01D92A037B207E1F7A2
:100070000E948E010C948A020C94000041E063E01F
:1000800082E00E94780041E064E082E00E94780013
:100090000E945A020895882319F0813061F0089572
:1000A00041E063E082E00E94E90040E064E082E039
:1000B0000E94E900089540E063E082E00E94E900C8
:1000C00041E064E082E00E94E900089590E00E942F
:1000D000670208950E947702089540E063E082E09D
:1000E0000E94E90040E064E082E00E94E900089597
:1000F0004423B9F1413009F06BC0813089F028F018
:100100008230C9F0833011F108952AB381E090E084
:1001100002C0880F991F6A95E2F7822B8ABB089567
:1001200027B381E090E002C0880F991F6A95E2F73B
:10013000822B87BB089524B381E090E002C0880F32
:10014000991F6A95E2F7822B84BB089521B381E061
:1001500090E002C0880F991F6A95E2F7822B81BB5D
:100160000895813091F028F08230D9F0833029F160
:1001700008952AB381E090E002C0880F991F6A9524
:10018000E2F7809582238ABB089527B381E090E04F
:1001900002C0880F991F6A95E2F78095822387BB7A
:1001A000089524B381E090E002C0880F991F6A95FA
:1001B000E2F78095822384BB089521B381E090E02B
:1001C00002C0880F991F6A95E2F78095822381BB50
:1001D00008954423B9F1413009F06BC0813089F0B2
:1001E00028F08230C9F0833011F108952BB381E0FB
:1001F00090E002C0880F991F6A95E2F7822B8BBBB3
:10020000089528B381E090E002C0880F991F6A9595
:10021000E2F7822B88BB089525B381E090E002C00D
:10022000880F991F6A95E2F7822B85BB089522B348
:1002300081E090E002C0880F991F6A95E2F7822B57
:1002400082BB0895813091F028F08230D9F083305C
:1002500029F108952BB381E090E002C0880F991F27
:100260006A95E2F7809582238BBB089528B381E0DD
:1002700090E002C0880F991F6A95E2F7809582236B
:1002800088BB089525B381E090E002C0880F991FD4
:100290006A95E2F78095822385BB089522B381E0B9
:1002A00090E002C0880F991F6A95E2F7809582233B
:1002B00082BB0895813089F028F08230C9F0833004
:1002C00011F108952BB381E090E002C0880F991FCF
:1002D0006A95E2F782278BBB089528B381E090E00E
:1002E00002C0880F991F6A95E2F7822788BB08959C
:1002F00025B381E090E002C0880F991F6A95E2F76C
:10030000822785BB089522B381E090E002C0880F68
:10031000991F6A95E2F7822782BB08950E943E00EA
:1003200041E061E082E00E9478000E94CC012FEF62
:1003300083ED90E3215080409040E1F700C0000041
:1003400083E00E94E401813329F461E082E00E94AD
:100350005A0180E08233A1F784E60E94660081E0C2
:100360000E944B000E946A002FEF83ED90E3215022
:1003700080409040E1F700C0000080E00E944B0008
:100380002FEF83ED90E3215080409040E1F700C0D3
:1003900000000E946D00D4CF41E066E081E00E9441
:1003A000780040E065E081E00E94780040E067E08E
:1003B00081E00E94780040E064E081E00E947800E3
:1003C0008DB180648DB908958FB9779BFECF8FB1C1
:1003D00008951F920F920FB60F9211242F933F93FF
:1003E0004F935F936F937F938F939F93AF93BF933D
:1003F000EF93FF938091600090916100A091620063
:10040000B09163000196A11DB11D8093600090938F
:100410006100A0936200B093630040916800509126
:10042000690060916A0070916B0084179507A607B8
:10043000B70741F4E0916E00F0916F00099580914B
:10044000640082BFFF91EF91BF91AF919F918F9117
:100450007F916F915F914F913F912F910F900FBEC0
:100460000F901F9018951F920F920FB60F921124A4
:100470002F933F934F935F936F937F938F939F93AC
:10048000AF93BF93EF93FF93E0916C00F0916D00F9
:100490000995FF91EF91BF91AF919F918F917F91BE
:1004A0006F915F914F913F912F910F900FBE0F90E1
:1004B0001F90189587B3886087BB83B7886083BF18
:1004C00083B7806483BF83B7806283BF089520E0D1
:1004D00030E0382F3695279536952795ABE7B4E170
:1004E0000E947B029695879581508CBF089583B7B3
:1004F000816083BF0895A29FB001B39FC001A39FF5
:10050000700D811D1124911DB29F700D811D11244C
:08051000911D0895F894FFCF3E
:00000001FF
