:100000000C942A000C9447000C9447000C94470071
:100010000C9447000C9447000C9447000C94470044
:100020000C9447000C9447000C9447000C94470034
:100030000C9447000C9447000C9447000C94470024
:100040000C9447000C9447000C9447000C94470014
:100050000C94470011241FBECFE5D8E0DEBFCDBF12
:1000600010E0A0E6B0E0E0EEF7E002C005900D92EF
:10007000A03EB107D9F720E0A0EEB0E001C01D928C
:10008000A43EB207E1F70E94D2020C94EE030C9456
:1000900000004423B9F1413009F06BC0813089F090
:1000A00028F08230C9F0833011F108952AB381E03D
:1000B00090E002C0880F991F6A95E2F7822B8ABBF5
:1000C000089527B381E090E002C0880F991F6A95D8
:1000D000E2F7822B87BB089524B381E090E002C051
:1000E000880F991F6A95E2F7822B84BB089521B38C
:1000F00081E090E002C0880F991F6A95E2F7822B99
:1001000081BB0895813091F028F08230D9F083309E
:1001100029F108952AB381E090E002C0880F991F69
:100120006A95E2F7809582238ABB089527B381E020
:1001300090E002C0880F991F6A95E2F780958223AC
:1001400087BB089524B381E090E002C0880F991F17
:100150006A95E2F78095822384BB089521B381E0FC
:1001600090E002C0880F991F6A95E2F7809582237C
:1001700081BB08954423B9F1413009F06BC081304F
:1001800089F028F08230C9F0833011F108952BB343
:1001900081E090E002C0880F991F6A95E2F7822BF8
:1001A0008BBB089528B381E090E002C0880F991FAF
:1001B0006A95E2F7822B88BB089525B381E090E031
:1001C00002C0880F991F6A95E2F7822B85BB0895BC
:1001D00022B381E090E002C0880F991F6A95E2F790
:1001E000822B82BB0895813091F028F08230D9F0C3
:1001F000833029F108952BB381E090E002C0880F8D
:10020000991F6A95E2F7809582238BBB089528B3E6
:1002100081E090E002C0880F991F6A95E2F780950F
:10022000822388BB089525B381E090E002C0880F47
:10023000991F6A95E2F78095822385BB089522B3C2
:1002400081E090E002C0880F991F6A95E2F78095DF
:10025000822382BB08950E94970108950F931F93F4
:10026000CF93DF938C01D62FC42F0E94A30180E58A
:100270000E94B7018C2F0E94D201C0E007C0F80194
:10028000EC0FF11D80810E94D201CF5FCD17B8F332
:100290000E94E801DF91CF911F910F910895CF93B4
:1002A000C82F0E94A30180E50E94B7018C2F0E94F5
:1002B000D2010E94AD0180E50E94C3010E94DD01D0
:1002C000C82F0E94E8018C2FCF910895EF92FF92E2
:1002D0000F931F93CF93DF9300D000D0CDB7DEB73D
:1002E000E62EF12C0CC08F2D8E0D0E944F01E1E007
:1002F000F0E0EC0FFD1FE00FF11F8083F3940F2D52
:1003000010E0E1E0F0E0EC0FFD1FE00FF11F808155
:100310008111E9CFCE0101960F900F900F900F90B1
:10032000DF91CF911F910F91FF90EF90089587E09B
:1003300080B981B18E7F81B981B18D7F81B986B756
:10034000846086BF089584EA86BF06B607FEFDCFA7
:1003500081B1887F8830E1F7089584EA86BF06B6C8
:1003600007FEFDCF81B1887F8031E1F70895880FC6
:1003700083B984E886BF06B607FEFDCF81B1887FCA
:100380008831E1F7089590E0880F991F816083B963
:1003900084E886BF06B607FEFDCF81B1887F803432
:1003A000E1F7089583B984E886BF06B607FEFDCF5E
:1003B00081B1887F8832E1F7089584E886BF06B668
:1003C00007FEFDCF81B1887F8835E1F783B10895BD
:1003D00084E986BF0895CF93C82F40E061E081E0B3
:1003E0000E94BA0040E062E081E00E94BA0040E072
:1003F00063E081E00E94BA008BB39C2F907F8F70E6
:10040000892B8BBB41E063E081E00E94BA008FE959
:100410009FE00197F1F700C0000040E063E081E059
:100420000E94BA0020E1C29FC00111249BB39F70BB
:10043000892B8BBB41E063E081E00E94BA008FE32F
:100440009CE90197F1F700C0000040E063E081E023
:100450000E94BA008FE19EE40197F1F700C000000E
:10046000CF91089541E061E081E00E94490041E0C0
:1004700062E081E00E94490041E063E081E00E9487
:10048000490041E064E080E00E94490041E065E00D
:1004900080E00E94490041E066E080E00E9449005F
:1004A00041E067E080E00E9449002FEF81EE94E098
:1004B000215080409040E1F700C0000083E30E949B
:1004C000EB0182E30E94EB0188E20E94EB018CE0E9
:1004D0000E94EB0181E00E94EB0186E00E94EB01AB
:1004E00082E00E94EB010895CF93C82F41E061E0C4
:1004F00081E00E94BA0040E062E081E00E94BA0020
:1005000040E063E081E00E94BA008BB39C2F907FB3
:100510008F70892B8BBB41E063E081E00E94BA00C1
:100520008FE99FE00197F1F700C0000040E063E031
:1005300081E00E94BA0020E1C29FC00111249BB358
:100540009F70892B8BBB41E063E081E00E94BA0081
:100550008FE39CE90197F1F700C0000040E063E001
:1005600081E00E94BA008FE19EE40197F1F700C09C
:100570000000CF9108950F931F93CF938C01C0E09B
:1005800003C00E947402CF5FF801EC0FF11D80815F
:100590008111F7CFCF911F910F91089581E00E94B3
:1005A000EB0108950E94CF030E942B010E943202AA
:1005B0000E94A7030E94C4032FEF83ED90E3215014
:1005C00080409040E1F700C0000040E064E080E639
:1005D00090E00E942E01C0E001C0C0E0C130E9F40B
:1005E0000E9470030E94CE0285E690E00E94BB024A
:1005F0000E94E103C82F0E945C03C33371F70E947D
:10060000CE0282E790E00E94BB020E94370340E0E6
:1006100064E00E942E01C0E0E1CF0E94CE028FE78D
:1006200090E00E94BB020E9437038C0160E084E0EE
:100630000E946601EC012FEF89E698E1215080408D
:100640009040E1F700C000000E94CE02B801CE0148
:100650000E944C03C82F2FEF89E698E1215080407B
:100660009040E1F700C000000E94CE02B7CFCF93C8
:10067000C0E00AC00E94E103882331F0EC2FF0E0D3
:10068000E052FF4F8083CF5FC430A0F31092E400AC
:1006900080EE90E0CF9108950E94E503892B31F41C
:1006A0008EE890E00E94BB0281E0089586E990E028
:1006B0000E94BB0280E008950E94CA03823079F450
:1006C0000E94CE0285EA90E00E94BB022FEF89E6ED
:1006D00098E1215080409040E1F700C0000008956B
:1006E0000E94CE0287EB90E00E94BB0281E30E9451
:1006F00074022FEF89E698E1215080409040E1F7A5
:1007000000C000000E94CE0287EC90E00E94BB0275
:1007100082E30E9474022FEF89E698E12150804025
:100720009040E1F700C000000E94CE0284ED90E00E
:100730000E94BB0283E30E9474022FEF89E698E1D6
:10074000215080409040E1F700C00000089540E053
:1007500066E081E00E94490041E065E081E00E949E
:10076000490041E067E081E00E94490041E064E027
:1007700081E00E9449008DB183658DB940E064E05D
:1007800081E00E94BA00089540E064E081E00E94A8
:10079000BA0008958FB9779BFECF8FB1089581B3CA
:1007A000826081BB81B38E7F81BB8AB180618AB94F
:1007B0008AB188608AB980B5866880BD87E689B9C4
:1007C00008955F9BFECF8CB10895FB01DC018D91F4
:1007D000019080190110D9F3990B0895F894FFCF77
:1007E000313233340053656E6420436F6D6D616E3A
:1007F00064004E65772050617373776F72640045B3
:100800006E7465722050617373776F726400576500
:100810006C636F6D650057726F6E67205061737304
:10082000776F72640053656E7420537563636573EC
:100830007366756C6C7900546F67676C65204C69E2
:10084000676874733A20004F70656E20446F6F7252
:100850003A2020004E657720506173733A202000C3
:00000001FF
